{
  "contractName": "Score",
  "abi": [
    {
      "inputs": [],
      "stateMutability": "nonpayable",
      "type": "constructor"
    },
    {
      "anonymous": false,
      "inputs": [
        {
          "indexed": false,
          "internalType": "uint256",
          "name": "",
          "type": "uint256"
        }
      ],
      "name": "Score_set",
      "type": "event"
    },
    {
      "stateMutability": "nonpayable",
      "type": "fallback"
    },
    {
      "inputs": [],
      "name": "score",
      "outputs": [
        {
          "internalType": "uint256",
          "name": "",
          "type": "uint256"
        }
      ],
      "stateMutability": "view",
      "type": "function",
      "constant": true
    },
    {
      "stateMutability": "payable",
      "type": "receive",
      "payable": true
    },
    {
      "inputs": [
        {
          "internalType": "uint256",
          "name": "new_score",
          "type": "uint256"
        }
      ],
      "name": "setScore",
      "outputs": [],
      "stateMutability": "nonpayable",
      "type": "function"
    },
    {
      "inputs": [],
      "name": "getScore",
      "outputs": [
        {
          "internalType": "uint256",
          "name": "",
          "type": "uint256"
        }
      ],
      "stateMutability": "view",
      "type": "function",
      "constant": true
    }
  ],
  "bytecode": "0x608060405234801561001057600080fd5b50600560008190555033600160006101000a81548173ffffffffffffffffffffffffffffffffffffffff021916908373ffffffffffffffffffffffffffffffffffffffff1602179055507f388d96015c0064444412a33b9e544322446745bdd9aaa21bd41779718591524b60636040518082815260200191505060405180910390a161022b806100a16000396000f3fe6080604052600436106100385760003560e01c8063422beeba14610051578063afd820671461008c578063efedc669146100b75761003f565b3661003f57005b34801561004b57600080fd5b50600080fd5b34801561005d57600080fd5b5061008a6004803603602081101561007457600080fd5b81019080803590602001909291905050506100e2565b005b34801561009857600080fd5b506100a16101e6565b6040518082815260200191505060405180910390f35b3480156100c357600080fd5b506100cc6101ef565b6040518082815260200191505060405180910390f35b600160009054906101000a900473ffffffffffffffffffffffffffffffffffffffff1673ffffffffffffffffffffffffffffffffffffffff163373ffffffffffffffffffffffffffffffffffffffff16146101a5576040517f08c379a000000000000000000000000000000000000000000000000000000000815260040180806020018281038252600b8152602001807f6e6f7420616c6c6f77656400000000000000000000000000000000000000000081525060200191505060405180910390fd5b806000819055507f388d96015c0064444412a33b9e544322446745bdd9aaa21bd41779718591524b816040518082815260200191505060405180910390a150565b60008054905090565b6000548156fea2646970667358221220c48ba8de4481d2bdcf82a166ddebdf006d10849583e131dc10717d7f968931db64736f6c63430006030033",
  "source": "pragma solidity >=0.4.21 <0.7.0;\n\ncontract Score {\n    \n    uint public score;\n    \n    address owner;\n    \n    event Score_set(uint);\n    \n    constructor() public {\n        score = 5;\n        owner = msg.sender;\n        emit Score_set(99);\n    }\n    \n    receive() external payable {\n        // This function is executed on plain Ether transfers \n        // (e.g. via .send() or .transfer())\n    }\n    \n    fallback() external {\n        //  This function is executed on a call to the contract:\n        //      - if none of the other functions match the given function signature\n        //      - if no data was supplied at all\n        //      - if there is no receive Ether function declared\n        revert();\n    }\n    \n    modifier onlyOwner {\n        require(msg.sender == owner, \"not allowed\");\n        _;\n    }\n    \n    function setScore(uint new_score) public onlyOwner {\n        score = new_score;\n        emit Score_set(new_score);\n    }\n    \n    function getScore() public view returns (uint) {\n        return score;\n    }\n    \n    \n}",
  "sourcePath": "/Users/jeancavallera/Desktop/Documents/Business/Laurence-Kirk/web3-tutorial/test_pod/project/contracts/Score.sol",
  "compiler": {
    "name": "solc",
    "version": "0.6.3+commit.8dda9521.Emscripten.clang"
  },
  "schemaVersion": "3.0.23",
  "updatedAt": "2020-02-23T11:16:02.957Z",
  "networkType": "ethereum",
  "devdoc": {
    "methods": {}
  },
  "userdoc": {
    "methods": {}
  }
}